{"abi":[{"type":"constructor","inputs":[],"stateMutability":"nonpayable"},{"type":"function","name":"approve","inputs":[{"name":"to","type":"address","internalType":"address"},{"name":"tokenId","type":"uint256","internalType":"uint256"}],"outputs":[],"stateMutability":"nonpayable"},{"type":"function","name":"balanceOf","inputs":[{"name":"owner","type":"address","internalType":"address"}],"outputs":[{"name":"","type":"uint256","internalType":"uint256"}],"stateMutability":"view"},{"type":"function","name":"burn","inputs":[{"name":"tokenId","type":"uint256","internalType":"uint256"}],"outputs":[],"stateMutability":"nonpayable"},{"type":"function","name":"getApproved","inputs":[{"name":"tokenId","type":"uint256","internalType":"uint256"}],"outputs":[{"name":"","type":"address","internalType":"address"}],"stateMutability":"view"},{"type":"function","name":"getRecord","inputs":[{"name":"tokenId","type":"uint256","internalType":"uint256"}],"outputs":[{"name":"","type":"tuple","internalType":"struct ProofOfGrowth.GrowthRecord","components":[{"name":"title","type":"string","internalType":"string"},{"name":"description","type":"string","internalType":"string"},{"name":"category","type":"string","internalType":"string"},{"name":"timestamp","type":"uint256","internalType":"uint256"}]}],"stateMutability":"view"},{"type":"function","name":"getTokenId","inputs":[],"outputs":[{"name":"","type":"uint256","internalType":"uint256"}],"stateMutability":"view"},{"type":"function","name":"getTokenURI","inputs":[{"name":"tokenId","type":"uint256","internalType":"uint256"}],"outputs":[{"name":"","type":"string","internalType":"string"}],"stateMutability":"view"},{"type":"function","name":"growthRecords","inputs":[{"name":"","type":"uint256","internalType":"uint256"}],"outputs":[{"name":"title","type":"string","internalType":"string"},{"name":"description","type":"string","internalType":"string"},{"name":"category","type":"string","internalType":"string"},{"name":"timestamp","type":"uint256","internalType":"uint256"}],"stateMutability":"view"},{"type":"function","name":"isApprovedForAll","inputs":[{"name":"owner","type":"address","internalType":"address"},{"name":"operator","type":"address","internalType":"address"}],"outputs":[{"name":"","type":"bool","internalType":"bool"}],"stateMutability":"view"},{"type":"function","name":"mint","inputs":[{"name":"to","type":"address","internalType":"address"},{"name":"_title","type":"string","internalType":"string"},{"name":"_description","type":"string","internalType":"string"},{"name":"_category","type":"string","internalType":"string"}],"outputs":[],"stateMutability":"nonpayable"},{"type":"function","name":"name","inputs":[],"outputs":[{"name":"","type":"string","internalType":"string"}],"stateMutability":"view"},{"type":"function","name":"owner","inputs":[],"outputs":[{"name":"","type":"address","internalType":"address"}],"stateMutability":"view"},{"type":"function","name":"ownerOf","inputs":[{"name":"tokenId","type":"uint256","internalType":"uint256"}],"outputs":[{"name":"","type":"address","internalType":"address"}],"stateMutability":"view"},{"type":"function","name":"renounceOwnership","inputs":[],"outputs":[],"stateMutability":"nonpayable"},{"type":"function","name":"safeTransferFrom","inputs":[{"name":"from","type":"address","internalType":"address"},{"name":"to","type":"address","internalType":"address"},{"name":"tokenId","type":"uint256","internalType":"uint256"}],"outputs":[],"stateMutability":"nonpayable"},{"type":"function","name":"safeTransferFrom","inputs":[{"name":"from","type":"address","internalType":"address"},{"name":"to","type":"address","internalType":"address"},{"name":"tokenId","type":"uint256","internalType":"uint256"},{"name":"data","type":"bytes","internalType":"bytes"}],"outputs":[],"stateMutability":"nonpayable"},{"type":"function","name":"setApprovalForAll","inputs":[{"name":"operator","type":"address","internalType":"address"},{"name":"approved","type":"bool","internalType":"bool"}],"outputs":[],"stateMutability":"nonpayable"},{"type":"function","name":"supportsInterface","inputs":[{"name":"interfaceId","type":"bytes4","internalType":"bytes4"}],"outputs":[{"name":"","type":"bool","internalType":"bool"}],"stateMutability":"view"},{"type":"function","name":"symbol","inputs":[],"outputs":[{"name":"","type":"string","internalType":"string"}],"stateMutability":"view"},{"type":"function","name":"tokenURI","inputs":[{"name":"tokenId","type":"uint256","internalType":"uint256"}],"outputs":[{"name":"","type":"string","internalType":"string"}],"stateMutability":"view"},{"type":"function","name":"transferFrom","inputs":[{"name":"from","type":"address","internalType":"address"},{"name":"to","type":"address","internalType":"address"},{"name":"tokenId","type":"uint256","internalType":"uint256"}],"outputs":[],"stateMutability":"nonpayable"},{"type":"function","name":"transferOwnership","inputs":[{"name":"newOwner","type":"address","internalType":"address"}],"outputs":[],"stateMutability":"nonpayable"},{"type":"event","name":"Approval","inputs":[{"name":"owner","type":"address","indexed":true,"internalType":"address"},{"name":"approved","type":"address","indexed":true,"internalType":"address"},{"name":"tokenId","type":"uint256","indexed":true,"internalType":"uint256"}],"anonymous":false},{"type":"event","name":"ApprovalForAll","inputs":[{"name":"owner","type":"address","indexed":true,"internalType":"address"},{"name":"operator","type":"address","indexed":true,"internalType":"address"},{"name":"approved","type":"bool","indexed":false,"internalType":"bool"}],"anonymous":false},{"type":"event","name":"OwnershipTransferred","inputs":[{"name":"previousOwner","type":"address","indexed":true,"internalType":"address"},{"name":"newOwner","type":"address","indexed":true,"internalType":"address"}],"anonymous":false},{"type":"event","name":"Transfer","inputs":[{"name":"from","type":"address","indexed":true,"internalType":"address"},{"name":"to","type":"address","indexed":true,"internalType":"address"},{"name":"tokenId","type":"uint256","indexed":true,"internalType":"uint256"}],"anonymous":false},{"type":"error","name":"ERC721IncorrectOwner","inputs":[{"name":"sender","type":"address","internalType":"address"},{"name":"tokenId","type":"uint256","internalType":"uint256"},{"name":"owner","type":"address","internalType":"address"}]},{"type":"error","name":"ERC721InsufficientApproval","inputs":[{"name":"operator","type":"address","internalType":"address"},{"name":"tokenId","type":"uint256","internalType":"uint256"}]},{"type":"error","name":"ERC721InvalidApprover","inputs":[{"name":"approver","type":"address","internalType":"address"}]},{"type":"error","name":"ERC721InvalidOperator","inputs":[{"name":"operator","type":"address","internalType":"address"}]},{"type":"error","name":"ERC721InvalidOwner","inputs":[{"name":"owner","type":"address","internalType":"address"}]},{"type":"error","name":"ERC721InvalidReceiver","inputs":[{"name":"receiver","type":"address","internalType":"address"}]},{"type":"error","name":"ERC721InvalidSender","inputs":[{"name":"sender","type":"address","internalType":"address"}]},{"type":"error","name":"ERC721NonexistentToken","inputs":[{"name":"tokenId","type":"uint256","internalType":"uint256"}]},{"type":"error","name":"OwnableInvalidOwner","inputs":[{"name":"owner","type":"address","internalType":"address"}]},{"type":"error","name":"OwnableUnauthorizedAccount","inputs":[{"name":"account","type":"address","internalType":"address"}]}],"bytecode":{"object":"0x608060405234801561000f575f80fd5b50336040518060400160405280600d81526020017f50726f6f664f6647726f777468000000000000000000000000000000000000008152506040518060400160405280600381526020017f504f470000000000000000000000000000000000000000000000000000000000815250815f908161008b9190610420565b50806001908161009b9190610420565b5050505f73ffffffffffffffffffffffffffffffffffffffff168173ffffffffffffffffffffffffffffffffffffffff160361010e575f6040517f1e4fbdf7000000000000000000000000000000000000000000000000000000008152600401610105919061052e565b60405180910390fd5b61011d8161012360201b60201c565b50610547565b5f60065f9054906101000a900473ffffffffffffffffffffffffffffffffffffffff1690508160065f6101000a81548173ffffffffffffffffffffffffffffffffffffffff021916908373ffffffffffffffffffffffffffffffffffffffff1602179055508173ffffffffffffffffffffffffffffffffffffffff168173ffffffffffffffffffffffffffffffffffffffff167f8be0079c531659141344cd1fd0a4f28419497f9722a3daafe3b4186f6b6457e060405160405180910390a35050565b5f81519050919050565b7f4e487b71000000000000000000000000000000000000000000000000000000005f52604160045260245ffd5b7f4e487b71000000000000000000000000000000000000000000000000000000005f52602260045260245ffd5b5f600282049050600182168061026157607f821691505b6020821081036102745761027361021d565b5b50919050565b5f819050815f5260205f209050919050565b5f6020601f8301049050919050565b5f82821b905092915050565b5f600883026102d67fffffffffffffffffffffffffffffffffffffffffffffffffffffffffffffffff8261029b565b6102e0868361029b565b95508019841693508086168417925050509392505050565b5f819050919050565b5f819050919050565b5f61032461031f61031a846102f8565b610301565b6102f8565b9050919050565b5f819050919050565b61033d8361030a565b6103516103498261032b565b8484546102a7565b825550505050565b5f90565b610365610359565b610370818484610334565b505050565b5b81811015610393576103885f8261035d565b600181019050610376565b5050565b601f8211156103d8576103a98161027a565b6103b28461028c565b810160208510156103c1578190505b6103d56103cd8561028c565b830182610375565b50505b505050565b5f82821c905092915050565b5f6103f85f19846008026103dd565b1980831691505092915050565b5f61041083836103e9565b9150826002028217905092915050565b610429826101e6565b67ffffffffffffffff811115610442576104416101f0565b5b61044c825461024a565b610457828285610397565b5f60209050601f831160018114610488575f8415610476578287015190505b6104808582610405565b8655506104e7565b601f1984166104968661027a565b5f5b828110156104bd57848901518255600182019150602085019450602081019050610498565b868310156104da57848901516104d6601f8916826103e9565b8355505b6001600288020188555050505b505050505050565b5f73ffffffffffffffffffffffffffffffffffffffff82169050919050565b5f610518826104ef565b9050919050565b6105288161050e565b82525050565b5f6020820190506105415f83018461051f565b92915050565b612e7b806105545f395ff3fe608060405234801561000f575f80fd5b5060043610610140575f3560e01c80636352211e116100b6578063a22cb4651161007a578063a22cb46514610372578063b88d4fde1461038e578063c87b56dd146103aa578063e985e9c5146103da578063edacf6b41461040a578063f2fde38b1461043d57610140565b80636352211e146102cc57806370a08231146102fc578063715018a61461032c5780638da5cb5b1461033657806395d89b411461035457610140565b8063095ea7b311610108578063095ea7b31461021057806323b872dd1461022c5780633bb3a24d1461024857806342842e0e1461027857806342966c68146102945780634a0706be146102b057610140565b8063010a38f51461014457806301ffc9a71461016257806303e9e6091461019257806306fdde03146101c2578063081812fc146101e0575b5f80fd5b61014c610459565b604051610159919061202d565b60405180910390f35b61017c600480360381019061017791906120ac565b610462565b60405161018991906120f1565b60405180910390f35b6101ac60048036038101906101a79190612134565b610543565b6040516101b9919061224c565b60405180910390f35b6101ca61079d565b6040516101d791906122b4565b60405180910390f35b6101fa60048036038101906101f59190612134565b61082c565b6040516102079190612313565b60405180910390f35b61022a60048036038101906102259190612356565b610847565b005b61024660048036038101906102419190612394565b61085d565b005b610262600480360381019061025d9190612134565b61095c565b60405161026f91906122b4565b60405180910390f35b610292600480360381019061028d9190612394565b6109ea565b005b6102ae60048036038101906102a99190612134565b610a09565b005b6102ca60048036038101906102c59190612510565b610ad2565b005b6102e660048036038101906102e19190612134565b610b87565b6040516102f39190612313565b60405180910390f35b610316600480360381019061031191906125c8565b610b98565b604051610323919061202d565b60405180910390f35b610334610c4e565b005b61033e610c61565b60405161034b9190612313565b60405180910390f35b61035c610c89565b60405161036991906122b4565b60405180910390f35b61038c6004803603810190610387919061261d565b610d19565b005b6103a860048036038101906103a391906126f9565b610d2f565b005b6103c460048036038101906103bf9190612134565b610d54565b6040516103d191906122b4565b60405180910390f35b6103f460048036038101906103ef9190612779565b610dba565b60405161040191906120f1565b60405180910390f35b610424600480360381019061041f9190612134565b610e48565b60405161043494939291906127b7565b60405180910390f35b610457600480360381019061045291906125c8565b611006565b005b5f600854905090565b5f7f80ac58cd000000000000000000000000000000000000000000000000000000007bffffffffffffffffffffffffffffffffffffffffffffffffffffffff1916827bffffffffffffffffffffffffffffffffffffffffffffffffffffffff1916148061052c57507f5b5e139f000000000000000000000000000000000000000000000000000000007bffffffffffffffffffffffffffffffffffffffffffffffffffffffff1916827bffffffffffffffffffffffffffffffffffffffffffffffffffffffff1916145b8061053c575061053b8261108a565b5b9050919050565b61054b611f96565b5f73ffffffffffffffffffffffffffffffffffffffff1661056b836110f3565b73ffffffffffffffffffffffffffffffffffffffff16036105c1576040517f08c379a00000000000000000000000000000000000000000000000000000000081526004016105b890612859565b60405180910390fd5b60075f8381526020019081526020015f206040518060800160405290815f820180546105ec906128a4565b80601f0160208091040260200160405190810160405280929190818152602001828054610618906128a4565b80156106635780601f1061063a57610100808354040283529160200191610663565b820191905f5260205f20905b81548152906001019060200180831161064657829003601f168201915b5050505050815260200160018201805461067c906128a4565b80601f01602080910402602001604051908101604052809291908181526020018280546106a8906128a4565b80156106f35780601f106106ca576101008083540402835291602001916106f3565b820191905f5260205f20905b8154815290600101906020018083116106d657829003601f168201915b5050505050815260200160028201805461070c906128a4565b80601f0160208091040260200160405190810160405280929190818152602001828054610738906128a4565b80156107835780601f1061075a57610100808354040283529160200191610783565b820191905f5260205f20905b81548152906001019060200180831161076657829003601f168201915b505050505081526020016003820154815250509050919050565b60605f80546107ab906128a4565b80601f01602080910402602001604051908101604052809291908181526020018280546107d7906128a4565b80156108225780601f106107f957610100808354040283529160200191610822565b820191905f5260205f20905b81548152906001019060200180831161080557829003601f168201915b5050505050905090565b5f6108368261112c565b50610840826111b2565b9050919050565b61085982826108546111eb565b6111f2565b5050565b5f73ffffffffffffffffffffffffffffffffffffffff168273ffffffffffffffffffffffffffffffffffffffff16036108cd575f6040517f64a0ae920000000000000000000000000000000000000000000000000000000081526004016108c49190612313565b60405180910390fd5b5f6108e083836108db6111eb565b611204565b90508373ffffffffffffffffffffffffffffffffffffffff168173ffffffffffffffffffffffffffffffffffffffff1614610956578382826040517f64283d7b00000000000000000000000000000000000000000000000000000000815260040161094d939291906128d4565b60405180910390fd5b50505050565b60605f73ffffffffffffffffffffffffffffffffffffffff1661097e836110f3565b73ffffffffffffffffffffffffffffffffffffffff16036109d4576040517f08c379a00000000000000000000000000000000000000000000000000000000081526004016109cb90612953565b60405180910390fd5b60405180602001604052805f8152509050919050565b610a0483838360405180602001604052805f815250610d2f565b505050565b3373ffffffffffffffffffffffffffffffffffffffff16610a29826110f3565b73ffffffffffffffffffffffffffffffffffffffff1614610a7f576040517f08c379a0000000000000000000000000000000000000000000000000000000008152600401610a76906129bb565b60405180910390fd5b610a888161140f565b60075f8281526020019081526020015f205f8082015f610aa89190611fbd565b600182015f610ab79190611fbd565b600282015f610ac69190611fbd565b600382015f9055505050565b610ada611491565b5f6008549050610aea8582611518565b60405180608001604052808581526020018481526020018381526020014281525060075f8381526020019081526020015f205f820151815f019081610b2f9190612b76565b506020820151816001019081610b459190612b76565b506040820151816002019081610b5b9190612b76565b506060820151816003015590505060085f815480929190610b7b90612c72565b91905055505050505050565b5f610b918261112c565b9050919050565b5f8073ffffffffffffffffffffffffffffffffffffffff168273ffffffffffffffffffffffffffffffffffffffff1603610c09575f6040517f89c62b64000000000000000000000000000000000000000000000000000000008152600401610c009190612313565b60405180910390fd5b60035f8373ffffffffffffffffffffffffffffffffffffffff1673ffffffffffffffffffffffffffffffffffffffff1681526020019081526020015f20549050919050565b610c56611491565b610c5f5f611535565b565b5f60065f9054906101000a900473ffffffffffffffffffffffffffffffffffffffff16905090565b606060018054610c98906128a4565b80601f0160208091040260200160405190810160405280929190818152602001828054610cc4906128a4565b8015610d0f5780601f10610ce657610100808354040283529160200191610d0f565b820191905f5260205f20905b815481529060010190602001808311610cf257829003601f168201915b5050505050905090565b610d2b610d246111eb565b83836115f8565b5050565b610d3a84848461085d565b610d4e610d456111eb565b85858585611761565b50505050565b6060610d5f8261112c565b505f610d6961190d565b90505f815111610d875760405180602001604052805f815250610db2565b80610d9184611923565b604051602001610da2929190612cf3565b6040516020818303038152906040525b915050919050565b5f60055f8473ffffffffffffffffffffffffffffffffffffffff1673ffffffffffffffffffffffffffffffffffffffff1681526020019081526020015f205f8373ffffffffffffffffffffffffffffffffffffffff1673ffffffffffffffffffffffffffffffffffffffff1681526020019081526020015f205f9054906101000a900460ff16905092915050565b6007602052805f5260405f205f91509050805f018054610e67906128a4565b80601f0160208091040260200160405190810160405280929190818152602001828054610e93906128a4565b8015610ede5780601f10610eb557610100808354040283529160200191610ede565b820191905f5260205f20905b815481529060010190602001808311610ec157829003601f168201915b505050505090806001018054610ef3906128a4565b80601f0160208091040260200160405190810160405280929190818152602001828054610f1f906128a4565b8015610f6a5780601f10610f4157610100808354040283529160200191610f6a565b820191905f5260205f20905b815481529060010190602001808311610f4d57829003601f168201915b505050505090806002018054610f7f906128a4565b80601f0160208091040260200160405190810160405280929190818152602001828054610fab906128a4565b8015610ff65780601f10610fcd57610100808354040283529160200191610ff6565b820191905f5260205f20905b815481529060010190602001808311610fd957829003601f168201915b5050505050908060030154905084565b61100e611491565b5f73ffffffffffffffffffffffffffffffffffffffff168173ffffffffffffffffffffffffffffffffffffffff160361107e575f6040517f1e4fbdf70000000000000000000000000000000000000000000000000000000081526004016110759190612313565b60405180910390fd5b61108781611535565b50565b5f7f01ffc9a7000000000000000000000000000000000000000000000000000000007bffffffffffffffffffffffffffffffffffffffffffffffffffffffff1916827bffffffffffffffffffffffffffffffffffffffffffffffffffffffff1916149050919050565b5f60025f8381526020019081526020015f205f9054906101000a900473ffffffffffffffffffffffffffffffffffffffff169050919050565b5f80611137836110f3565b90505f73ffffffffffffffffffffffffffffffffffffffff168173ffffffffffffffffffffffffffffffffffffffff16036111a957826040517f7e2732890000000000000000000000000000000000000000000000000000000081526004016111a0919061202d565b60405180910390fd5b80915050919050565b5f60045f8381526020019081526020015f205f9054906101000a900473ffffffffffffffffffffffffffffffffffffffff169050919050565b5f33905090565b6111ff83838360016119ed565b505050565b5f8061120f846110f3565b90505f73ffffffffffffffffffffffffffffffffffffffff168373ffffffffffffffffffffffffffffffffffffffff16146112505761124f818486611bac565b5b5f73ffffffffffffffffffffffffffffffffffffffff168173ffffffffffffffffffffffffffffffffffffffff16146112db5761128f5f855f806119ed565b600160035f8373ffffffffffffffffffffffffffffffffffffffff1673ffffffffffffffffffffffffffffffffffffffff1681526020019081526020015f205f82825403925050819055505b5f73ffffffffffffffffffffffffffffffffffffffff168573ffffffffffffffffffffffffffffffffffffffff161461135a57600160035f8773ffffffffffffffffffffffffffffffffffffffff1673ffffffffffffffffffffffffffffffffffffffff1681526020019081526020015f205f82825401925050819055505b8460025f8681526020019081526020015f205f6101000a81548173ffffffffffffffffffffffffffffffffffffffff021916908373ffffffffffffffffffffffffffffffffffffffff160217905550838573ffffffffffffffffffffffffffffffffffffffff168273ffffffffffffffffffffffffffffffffffffffff167fddf252ad1be2c89b69c2b068fc378daa952ba7f163c4a11628f55a4df523b3ef60405160405180910390a4809150509392505050565b5f61141b5f835f611204565b90505f73ffffffffffffffffffffffffffffffffffffffff168173ffffffffffffffffffffffffffffffffffffffff160361148d57816040517f7e273289000000000000000000000000000000000000000000000000000000008152600401611484919061202d565b60405180910390fd5b5050565b6114996111eb565b73ffffffffffffffffffffffffffffffffffffffff166114b7610c61565b73ffffffffffffffffffffffffffffffffffffffff1614611516576114da6111eb565b6040517f118cdaa700000000000000000000000000000000000000000000000000000000815260040161150d9190612313565b60405180910390fd5b565b611531828260405180602001604052805f815250611c6f565b5050565b5f60065f9054906101000a900473ffffffffffffffffffffffffffffffffffffffff1690508160065f6101000a81548173ffffffffffffffffffffffffffffffffffffffff021916908373ffffffffffffffffffffffffffffffffffffffff1602179055508173ffffffffffffffffffffffffffffffffffffffff168173ffffffffffffffffffffffffffffffffffffffff167f8be0079c531659141344cd1fd0a4f28419497f9722a3daafe3b4186f6b6457e060405160405180910390a35050565b5f73ffffffffffffffffffffffffffffffffffffffff168273ffffffffffffffffffffffffffffffffffffffff160361166857816040517f5b08ba1800000000000000000000000000000000000000000000000000000000815260040161165f9190612313565b60405180910390fd5b8060055f8573ffffffffffffffffffffffffffffffffffffffff1673ffffffffffffffffffffffffffffffffffffffff1681526020019081526020015f205f8473ffffffffffffffffffffffffffffffffffffffff1673ffffffffffffffffffffffffffffffffffffffff1681526020019081526020015f205f6101000a81548160ff0219169083151502179055508173ffffffffffffffffffffffffffffffffffffffff168373ffffffffffffffffffffffffffffffffffffffff167f17307eab39ab6107e8899845ad3d59bd9653f200f220920489ca2b5937696c318360405161175491906120f1565b60405180910390a3505050565b5f8373ffffffffffffffffffffffffffffffffffffffff163b1115611906578273ffffffffffffffffffffffffffffffffffffffff1663150b7a02868685856040518563ffffffff1660e01b81526004016117bf9493929190612d68565b6020604051808303815f875af19250505080156117fa57506040513d601f19601f820116820180604052508101906117f79190612dc6565b60015b61187b573d805f8114611828576040519150601f19603f3d011682016040523d82523d5f602084013e61182d565b606091505b505f81510361187357836040517f64a0ae9200000000000000000000000000000000000000000000000000000000815260040161186a9190612313565b60405180910390fd5b805181602001fd5b63150b7a0260e01b7bffffffffffffffffffffffffffffffffffffffffffffffffffffffff1916817bffffffffffffffffffffffffffffffffffffffffffffffffffffffff19161461190457836040517f64a0ae920000000000000000000000000000000000000000000000000000000081526004016118fb9190612313565b60405180910390fd5b505b5050505050565b606060405180602001604052805f815250905090565b60605f600161193184611c92565b0190505f8167ffffffffffffffff81111561194f5761194e6123ec565b5b6040519080825280601f01601f1916602001820160405280156119815781602001600182028036833780820191505090505b5090505f82602001820190505b6001156119e2578080600190039150507f3031323334353637383961626364656600000000000000000000000000000000600a86061a8153600a85816119d7576119d6612df1565b5b0494505f850361198e575b819350505050919050565b8080611a2557505f73ffffffffffffffffffffffffffffffffffffffff168273ffffffffffffffffffffffffffffffffffffffff1614155b15611b57575f611a348461112c565b90505f73ffffffffffffffffffffffffffffffffffffffff168373ffffffffffffffffffffffffffffffffffffffff1614158015611a9e57508273ffffffffffffffffffffffffffffffffffffffff168173ffffffffffffffffffffffffffffffffffffffff1614155b8015611ab15750611aaf8184610dba565b155b15611af357826040517fa9fbf51f000000000000000000000000000000000000000000000000000000008152600401611aea9190612313565b60405180910390fd5b8115611b5557838573ffffffffffffffffffffffffffffffffffffffff168273ffffffffffffffffffffffffffffffffffffffff167f8c5be1e5ebec7d5bd14f71427d1e84f3dd0314c0f7b2291e5b200ac8c7c3b92560405160405180910390a45b505b8360045f8581526020019081526020015f205f6101000a81548173ffffffffffffffffffffffffffffffffffffffff021916908373ffffffffffffffffffffffffffffffffffffffff16021790555050505050565b611bb7838383611de3565b611c6a575f73ffffffffffffffffffffffffffffffffffffffff168373ffffffffffffffffffffffffffffffffffffffff1603611c2b57806040517f7e273289000000000000000000000000000000000000000000000000000000008152600401611c22919061202d565b60405180910390fd5b81816040517f177e802f000000000000000000000000000000000000000000000000000000008152600401611c61929190612e1e565b60405180910390fd5b505050565b611c798383611ea3565b611c8d611c846111eb565b5f858585611761565b505050565b5f805f90507a184f03e93ff9f4daa797ed6e38ed64bf6a1f0100000000000000008310611cee577a184f03e93ff9f4daa797ed6e38ed64bf6a1f0100000000000000008381611ce457611ce3612df1565b5b0492506040810190505b6d04ee2d6d415b85acef81000000008310611d2b576d04ee2d6d415b85acef81000000008381611d2157611d20612df1565b5b0492506020810190505b662386f26fc100008310611d5a57662386f26fc100008381611d5057611d4f612df1565b5b0492506010810190505b6305f5e1008310611d83576305f5e1008381611d7957611d78612df1565b5b0492506008810190505b6127108310611da8576127108381611d9e57611d9d612df1565b5b0492506004810190505b60648310611dcb5760648381611dc157611dc0612df1565b5b0492506002810190505b600a8310611dda576001810190505b80915050919050565b5f8073ffffffffffffffffffffffffffffffffffffffff168373ffffffffffffffffffffffffffffffffffffffff1614158015611e9a57508273ffffffffffffffffffffffffffffffffffffffff168473ffffffffffffffffffffffffffffffffffffffff161480611e5b5750611e5a8484610dba565b5b80611e9957508273ffffffffffffffffffffffffffffffffffffffff16611e81836111b2565b73ffffffffffffffffffffffffffffffffffffffff16145b5b90509392505050565b5f73ffffffffffffffffffffffffffffffffffffffff168273ffffffffffffffffffffffffffffffffffffffff1603611f13575f6040517f64a0ae92000000000000000000000000000000000000000000000000000000008152600401611f0a9190612313565b60405180910390fd5b5f611f1f83835f611204565b90505f73ffffffffffffffffffffffffffffffffffffffff168173ffffffffffffffffffffffffffffffffffffffff1614611f91575f6040517f73c6ac6e000000000000000000000000000000000000000000000000000000008152600401611f889190612313565b60405180910390fd5b505050565b60405180608001604052806060815260200160608152602001606081526020015f81525090565b508054611fc9906128a4565b5f825580601f10611fda5750611ff7565b601f0160209004905f5260205f2090810190611ff69190611ffa565b5b50565b5b80821115612011575f815f905550600101611ffb565b5090565b5f819050919050565b61202781612015565b82525050565b5f6020820190506120405f83018461201e565b92915050565b5f604051905090565b5f80fd5b5f80fd5b5f7fffffffff0000000000000000000000000000000000000000000000000000000082169050919050565b61208b81612057565b8114612095575f80fd5b50565b5f813590506120a681612082565b92915050565b5f602082840312156120c1576120c061204f565b5b5f6120ce84828501612098565b91505092915050565b5f8115159050919050565b6120eb816120d7565b82525050565b5f6020820190506121045f8301846120e2565b92915050565b61211381612015565b811461211d575f80fd5b50565b5f8135905061212e8161210a565b92915050565b5f602082840312156121495761214861204f565b5b5f61215684828501612120565b91505092915050565b5f81519050919050565b5f82825260208201905092915050565b8281835e5f83830152505050565b5f601f19601f8301169050919050565b5f6121a18261215f565b6121ab8185612169565b93506121bb818560208601612179565b6121c481612187565b840191505092915050565b6121d881612015565b82525050565b5f608083015f8301518482035f8601526121f88282612197565b915050602083015184820360208601526122128282612197565b9150506040830151848203604086015261222c8282612197565b915050606083015161224160608601826121cf565b508091505092915050565b5f6020820190508181035f83015261226481846121de565b905092915050565b5f82825260208201905092915050565b5f6122868261215f565b612290818561226c565b93506122a0818560208601612179565b6122a981612187565b840191505092915050565b5f6020820190508181035f8301526122cc818461227c565b905092915050565b5f73ffffffffffffffffffffffffffffffffffffffff82169050919050565b5f6122fd826122d4565b9050919050565b61230d816122f3565b82525050565b5f6020820190506123265f830184612304565b92915050565b612335816122f3565b811461233f575f80fd5b50565b5f813590506123508161232c565b92915050565b5f806040838503121561236c5761236b61204f565b5b5f61237985828601612342565b925050602061238a85828601612120565b9150509250929050565b5f805f606084860312156123ab576123aa61204f565b5b5f6123b886828701612342565b93505060206123c986828701612342565b92505060406123da86828701612120565b9150509250925092565b5f80fd5b5f80fd5b7f4e487b71000000000000000000000000000000000000000000000000000000005f52604160045260245ffd5b61242282612187565b810181811067ffffffffffffffff82111715612441576124406123ec565b5b80604052505050565b5f612453612046565b905061245f8282612419565b919050565b5f67ffffffffffffffff82111561247e5761247d6123ec565b5b61248782612187565b9050602081019050919050565b828183375f83830152505050565b5f6124b46124af84612464565b61244a565b9050828152602081018484840111156124d0576124cf6123e8565b5b6124db848285612494565b509392505050565b5f82601f8301126124f7576124f66123e4565b5b81356125078482602086016124a2565b91505092915050565b5f805f80608085870312156125285761252761204f565b5b5f61253587828801612342565b945050602085013567ffffffffffffffff81111561255657612555612053565b5b612562878288016124e3565b935050604085013567ffffffffffffffff81111561258357612582612053565b5b61258f878288016124e3565b925050606085013567ffffffffffffffff8111156125b0576125af612053565b5b6125bc878288016124e3565b91505092959194509250565b5f602082840312156125dd576125dc61204f565b5b5f6125ea84828501612342565b91505092915050565b6125fc816120d7565b8114612606575f80fd5b50565b5f81359050612617816125f3565b92915050565b5f80604083850312156126335761263261204f565b5b5f61264085828601612342565b925050602061265185828601612609565b9150509250929050565b5f67ffffffffffffffff821115612675576126746123ec565b5b61267e82612187565b9050602081019050919050565b5f61269d6126988461265b565b61244a565b9050828152602081018484840111156126b9576126b86123e8565b5b6126c4848285612494565b509392505050565b5f82601f8301126126e0576126df6123e4565b5b81356126f084826020860161268b565b91505092915050565b5f805f80608085870312156127115761271061204f565b5b5f61271e87828801612342565b945050602061272f87828801612342565b935050604061274087828801612120565b925050606085013567ffffffffffffffff81111561276157612760612053565b5b61276d878288016126cc565b91505092959194509250565b5f806040838503121561278f5761278e61204f565b5b5f61279c85828601612342565b92505060206127ad85828601612342565b9150509250929050565b5f6080820190508181035f8301526127cf818761227c565b905081810360208301526127e3818661227c565b905081810360408301526127f7818561227c565b9050612806606083018461201e565b95945050505050565b7f546f6b656e20646f6573206e6f742065786973740000000000000000000000005f82015250565b5f61284360148361226c565b915061284e8261280f565b602082019050919050565b5f6020820190508181035f83015261287081612837565b9050919050565b7f4e487b71000000000000000000000000000000000000000000000000000000005f52602260045260245ffd5b5f60028204905060018216806128bb57607f821691505b6020821081036128ce576128cd612877565b5b50919050565b5f6060820190506128e75f830186612304565b6128f4602083018561201e565b6129016040830184612304565b949350505050565b7f517565727920666f72206e6f6e6578697374656e7420746f6b656e00000000005f82015250565b5f61293d601b8361226c565b915061294882612909565b602082019050919050565b5f6020820190508181035f83015261296a81612931565b9050919050565b7f4e6f7420746865206f776e6572000000000000000000000000000000000000005f82015250565b5f6129a5600d8361226c565b91506129b082612971565b602082019050919050565b5f6020820190508181035f8301526129d281612999565b9050919050565b5f819050815f5260205f209050919050565b5f6020601f8301049050919050565b5f82821b905092915050565b5f60088302612a357fffffffffffffffffffffffffffffffffffffffffffffffffffffffffffffffff826129fa565b612a3f86836129fa565b95508019841693508086168417925050509392505050565b5f819050919050565b5f612a7a612a75612a7084612015565b612a57565b612015565b9050919050565b5f819050919050565b612a9383612a60565b612aa7612a9f82612a81565b848454612a06565b825550505050565b5f90565b612abb612aaf565b612ac6818484612a8a565b505050565b5b81811015612ae957612ade5f82612ab3565b600181019050612acc565b5050565b601f821115612b2e57612aff816129d9565b612b08846129eb565b81016020851015612b17578190505b612b2b612b23856129eb565b830182612acb565b50505b505050565b5f82821c905092915050565b5f612b4e5f1984600802612b33565b1980831691505092915050565b5f612b668383612b3f565b9150826002028217905092915050565b612b7f8261215f565b67ffffffffffffffff811115612b9857612b976123ec565b5b612ba282546128a4565b612bad828285612aed565b5f60209050601f831160018114612bde575f8415612bcc578287015190505b612bd68582612b5b565b865550612c3d565b601f198416612bec866129d9565b5f5b82811015612c1357848901518255600182019150602085019450602081019050612bee565b86831015612c305784890151612c2c601f891682612b3f565b8355505b6001600288020188555050505b505050505050565b7f4e487b71000000000000000000000000000000000000000000000000000000005f52601160045260245ffd5b5f612c7c82612015565b91507fffffffffffffffffffffffffffffffffffffffffffffffffffffffffffffffff8203612cae57612cad612c45565b5b600182019050919050565b5f81905092915050565b5f612ccd8261215f565b612cd78185612cb9565b9350612ce7818560208601612179565b80840191505092915050565b5f612cfe8285612cc3565b9150612d0a8284612cc3565b91508190509392505050565b5f81519050919050565b5f82825260208201905092915050565b5f612d3a82612d16565b612d448185612d20565b9350612d54818560208601612179565b612d5d81612187565b840191505092915050565b5f608082019050612d7b5f830187612304565b612d886020830186612304565b612d95604083018561201e565b8181036060830152612da78184612d30565b905095945050505050565b5f81519050612dc081612082565b92915050565b5f60208284031215612ddb57612dda61204f565b5b5f612de884828501612db2565b91505092915050565b7f4e487b71000000000000000000000000000000000000000000000000000000005f52601260045260245ffd5b5f604082019050612e315f830185612304565b612e3e602083018461201e565b939250505056fea2646970667358221220f52b94f77effce8d3981eea002ab2c116b8fef5ca36c718666f25d951554d60864736f6c634300081a0033","linkReferences":{}},"methodIdentifiers":{"approve(address,uint256)":"095ea7b3","balanceOf(address)":"70a08231","burn(uint256)":"42966c68","getApproved(uint256)":"081812fc","getRecord(uint256)":"03e9e609","getTokenId()":"010a38f5","getTokenURI(uint256)":"3bb3a24d","growthRecords(uint256)":"edacf6b4","isApprovedForAll(address,address)":"e985e9c5","mint(address,string,string,string)":"4a0706be","name()":"06fdde03","owner()":"8da5cb5b","ownerOf(uint256)":"6352211e","renounceOwnership()":"715018a6","safeTransferFrom(address,address,uint256)":"42842e0e","safeTransferFrom(address,address,uint256,bytes)":"b88d4fde","setApprovalForAll(address,bool)":"a22cb465","supportsInterface(bytes4)":"01ffc9a7","symbol()":"95d89b41","tokenURI(uint256)":"c87b56dd","transferFrom(address,address,uint256)":"23b872dd","transferOwnership(address)":"f2fde38b"},"id":0}