{"abi":[{"type":"constructor","inputs":[],"stateMutability":"nonpayable"},{"type":"function","name":"approve","inputs":[{"name":"to","type":"address","internalType":"address"},{"name":"tokenId","type":"uint256","internalType":"uint256"}],"outputs":[],"stateMutability":"nonpayable"},{"type":"function","name":"balanceOf","inputs":[{"name":"owner","type":"address","internalType":"address"}],"outputs":[{"name":"","type":"uint256","internalType":"uint256"}],"stateMutability":"view"},{"type":"function","name":"burn","inputs":[{"name":"tokenId","type":"uint256","internalType":"uint256"}],"outputs":[],"stateMutability":"nonpayable"},{"type":"function","name":"getApproved","inputs":[{"name":"tokenId","type":"uint256","internalType":"uint256"}],"outputs":[{"name":"","type":"address","internalType":"address"}],"stateMutability":"view"},{"type":"function","name":"getRecord","inputs":[{"name":"tokenId","type":"uint256","internalType":"uint256"}],"outputs":[{"name":"","type":"tuple","internalType":"struct ProofOfGrowth.GrowthRecord","components":[{"name":"title","type":"string","internalType":"string"},{"name":"description","type":"string","internalType":"string"},{"name":"category","type":"string","internalType":"string"},{"name":"timestamp","type":"uint256","internalType":"uint256"}]}],"stateMutability":"view"},{"type":"function","name":"getTokenId","inputs":[],"outputs":[{"name":"","type":"uint256","internalType":"uint256"}],"stateMutability":"view"},{"type":"function","name":"getTokenURI","inputs":[{"name":"tokenId","type":"uint256","internalType":"uint256"}],"outputs":[{"name":"","type":"string","internalType":"string"}],"stateMutability":"view"},{"type":"function","name":"growthRecords","inputs":[{"name":"","type":"uint256","internalType":"uint256"}],"outputs":[{"name":"title","type":"string","internalType":"string"},{"name":"description","type":"string","internalType":"string"},{"name":"category","type":"string","internalType":"string"},{"name":"timestamp","type":"uint256","internalType":"uint256"}],"stateMutability":"view"},{"type":"function","name":"isApprovedForAll","inputs":[{"name":"owner","type":"address","internalType":"address"},{"name":"operator","type":"address","internalType":"address"}],"outputs":[{"name":"","type":"bool","internalType":"bool"}],"stateMutability":"view"},{"type":"function","name":"mint","inputs":[{"name":"to","type":"address","internalType":"address"},{"name":"_title","type":"string","internalType":"string"},{"name":"_description","type":"string","internalType":"string"},{"name":"_category","type":"string","internalType":"string"}],"outputs":[],"stateMutability":"nonpayable"},{"type":"function","name":"name","inputs":[],"outputs":[{"name":"","type":"string","internalType":"string"}],"stateMutability":"view"},{"type":"function","name":"owner","inputs":[],"outputs":[{"name":"","type":"address","internalType":"address"}],"stateMutability":"view"},{"type":"function","name":"ownerOf","inputs":[{"name":"tokenId","type":"uint256","internalType":"uint256"}],"outputs":[{"name":"","type":"address","internalType":"address"}],"stateMutability":"view"},{"type":"function","name":"renounceOwnership","inputs":[],"outputs":[],"stateMutability":"nonpayable"},{"type":"function","name":"safeTransferFrom","inputs":[{"name":"from","type":"address","internalType":"address"},{"name":"to","type":"address","internalType":"address"},{"name":"tokenId","type":"uint256","internalType":"uint256"}],"outputs":[],"stateMutability":"nonpayable"},{"type":"function","name":"safeTransferFrom","inputs":[{"name":"from","type":"address","internalType":"address"},{"name":"to","type":"address","internalType":"address"},{"name":"tokenId","type":"uint256","internalType":"uint256"},{"name":"data","type":"bytes","internalType":"bytes"}],"outputs":[],"stateMutability":"nonpayable"},{"type":"function","name":"setApprovalForAll","inputs":[{"name":"operator","type":"address","internalType":"address"},{"name":"approved","type":"bool","internalType":"bool"}],"outputs":[],"stateMutability":"nonpayable"},{"type":"function","name":"supportsInterface","inputs":[{"name":"interfaceId","type":"bytes4","internalType":"bytes4"}],"outputs":[{"name":"","type":"bool","internalType":"bool"}],"stateMutability":"view"},{"type":"function","name":"symbol","inputs":[],"outputs":[{"name":"","type":"string","internalType":"string"}],"stateMutability":"view"},{"type":"function","name":"tokenByIndex","inputs":[{"name":"index","type":"uint256","internalType":"uint256"}],"outputs":[{"name":"","type":"uint256","internalType":"uint256"}],"stateMutability":"view"},{"type":"function","name":"tokenOfOwnerByIndex","inputs":[{"name":"owner","type":"address","internalType":"address"},{"name":"index","type":"uint256","internalType":"uint256"}],"outputs":[{"name":"","type":"uint256","internalType":"uint256"}],"stateMutability":"view"},{"type":"function","name":"tokenURI","inputs":[{"name":"tokenId","type":"uint256","internalType":"uint256"}],"outputs":[{"name":"","type":"string","internalType":"string"}],"stateMutability":"view"},{"type":"function","name":"totalSupply","inputs":[],"outputs":[{"name":"","type":"uint256","internalType":"uint256"}],"stateMutability":"view"},{"type":"function","name":"transferFrom","inputs":[{"name":"from","type":"address","internalType":"address"},{"name":"to","type":"address","internalType":"address"},{"name":"tokenId","type":"uint256","internalType":"uint256"}],"outputs":[],"stateMutability":"nonpayable"},{"type":"function","name":"transferOwnership","inputs":[{"name":"newOwner","type":"address","internalType":"address"}],"outputs":[],"stateMutability":"nonpayable"},{"type":"event","name":"Approval","inputs":[{"name":"owner","type":"address","indexed":true,"internalType":"address"},{"name":"approved","type":"address","indexed":true,"internalType":"address"},{"name":"tokenId","type":"uint256","indexed":true,"internalType":"uint256"}],"anonymous":false},{"type":"event","name":"ApprovalForAll","inputs":[{"name":"owner","type":"address","indexed":true,"internalType":"address"},{"name":"operator","type":"address","indexed":true,"internalType":"address"},{"name":"approved","type":"bool","indexed":false,"internalType":"bool"}],"anonymous":false},{"type":"event","name":"OwnershipTransferred","inputs":[{"name":"previousOwner","type":"address","indexed":true,"internalType":"address"},{"name":"newOwner","type":"address","indexed":true,"internalType":"address"}],"anonymous":false},{"type":"event","name":"Transfer","inputs":[{"name":"from","type":"address","indexed":true,"internalType":"address"},{"name":"to","type":"address","indexed":true,"internalType":"address"},{"name":"tokenId","type":"uint256","indexed":true,"internalType":"uint256"}],"anonymous":false},{"type":"error","name":"ERC721EnumerableForbiddenBatchMint","inputs":[]},{"type":"error","name":"ERC721IncorrectOwner","inputs":[{"name":"sender","type":"address","internalType":"address"},{"name":"tokenId","type":"uint256","internalType":"uint256"},{"name":"owner","type":"address","internalType":"address"}]},{"type":"error","name":"ERC721InsufficientApproval","inputs":[{"name":"operator","type":"address","internalType":"address"},{"name":"tokenId","type":"uint256","internalType":"uint256"}]},{"type":"error","name":"ERC721InvalidApprover","inputs":[{"name":"approver","type":"address","internalType":"address"}]},{"type":"error","name":"ERC721InvalidOperator","inputs":[{"name":"operator","type":"address","internalType":"address"}]},{"type":"error","name":"ERC721InvalidOwner","inputs":[{"name":"owner","type":"address","internalType":"address"}]},{"type":"error","name":"ERC721InvalidReceiver","inputs":[{"name":"receiver","type":"address","internalType":"address"}]},{"type":"error","name":"ERC721InvalidSender","inputs":[{"name":"sender","type":"address","internalType":"address"}]},{"type":"error","name":"ERC721NonexistentToken","inputs":[{"name":"tokenId","type":"uint256","internalType":"uint256"}]},{"type":"error","name":"ERC721OutOfBoundsIndex","inputs":[{"name":"owner","type":"address","internalType":"address"},{"name":"index","type":"uint256","internalType":"uint256"}]},{"type":"error","name":"OwnableInvalidOwner","inputs":[{"name":"owner","type":"address","internalType":"address"}]},{"type":"error","name":"OwnableUnauthorizedAccount","inputs":[{"name":"account","type":"address","internalType":"address"}]}],"bytecode":{"object":"0x608060405234801561000f575f80fd5b50336040518060400160405280600d81526020017f50726f6f664f6647726f777468000000000000000000000000000000000000008152506040518060400160405280600381526020017f504f470000000000000000000000000000000000000000000000000000000000815250815f908161008b9190610420565b50806001908161009b9190610420565b5050505f73ffffffffffffffffffffffffffffffffffffffff168173ffffffffffffffffffffffffffffffffffffffff160361010e575f6040517f1e4fbdf7000000000000000000000000000000000000000000000000000000008152600401610105919061052e565b60405180910390fd5b61011d8161012360201b60201c565b50610547565b5f600a5f9054906101000a900473ffffffffffffffffffffffffffffffffffffffff16905081600a5f6101000a81548173ffffffffffffffffffffffffffffffffffffffff021916908373ffffffffffffffffffffffffffffffffffffffff1602179055508173ffffffffffffffffffffffffffffffffffffffff168173ffffffffffffffffffffffffffffffffffffffff167f8be0079c531659141344cd1fd0a4f28419497f9722a3daafe3b4186f6b6457e060405160405180910390a35050565b5f81519050919050565b7f4e487b71000000000000000000000000000000000000000000000000000000005f52604160045260245ffd5b7f4e487b71000000000000000000000000000000000000000000000000000000005f52602260045260245ffd5b5f600282049050600182168061026157607f821691505b6020821081036102745761027361021d565b5b50919050565b5f819050815f5260205f209050919050565b5f6020601f8301049050919050565b5f82821b905092915050565b5f600883026102d67fffffffffffffffffffffffffffffffffffffffffffffffffffffffffffffffff8261029b565b6102e0868361029b565b95508019841693508086168417925050509392505050565b5f819050919050565b5f819050919050565b5f61032461031f61031a846102f8565b610301565b6102f8565b9050919050565b5f819050919050565b61033d8361030a565b6103516103498261032b565b8484546102a7565b825550505050565b5f90565b610365610359565b610370818484610334565b505050565b5b81811015610393576103885f8261035d565b600181019050610376565b5050565b601f8211156103d8576103a98161027a565b6103b28461028c565b810160208510156103c1578190505b6103d56103cd8561028c565b830182610375565b50505b505050565b5f82821c905092915050565b5f6103f85f19846008026103dd565b1980831691505092915050565b5f61041083836103e9565b9150826002028217905092915050565b610429826101e6565b67ffffffffffffffff811115610442576104416101f0565b5b61044c825461024a565b610457828285610397565b5f60209050601f831160018114610488575f8415610476578287015190505b6104808582610405565b8655506104e7565b601f1984166104968661027a565b5f5b828110156104bd57848901518255600182019150602085019450602081019050610498565b868310156104da57848901516104d6601f8916826103e9565b8355505b6001600288020188555050505b505050505050565b5f73ffffffffffffffffffffffffffffffffffffffff82169050919050565b5f610518826104ef565b9050919050565b6105288161050e565b82525050565b5f6020820190506105415f83018461051f565b92915050565b6134cb806105545f395ff3fe608060405234801561000f575f80fd5b5060043610610171575f3560e01c80634a0706be116100dc57806395d89b4111610095578063c87b56dd1161006f578063c87b56dd14610459578063e985e9c514610489578063edacf6b4146104b9578063f2fde38b146104ec57610171565b806395d89b4114610403578063a22cb46514610421578063b88d4fde1461043d57610171565b80634a0706be1461032f5780634f6ccce71461034b5780636352211e1461037b57806370a08231146103ab578063715018a6146103db5780638da5cb5b146103e557610171565b806318160ddd1161012e57806318160ddd1461025d57806323b872dd1461027b5780632f745c59146102975780633bb3a24d146102c757806342842e0e146102f757806342966c681461031357610171565b8063010a38f51461017557806301ffc9a71461019357806303e9e609146101c357806306fdde03146101f3578063081812fc14610211578063095ea7b314610241575b5f80fd5b61017d610508565b60405161018a91906125f0565b60405180910390f35b6101ad60048036038101906101a8919061266f565b610511565b6040516101ba91906126b4565b60405180910390f35b6101dd60048036038101906101d891906126f7565b61058a565b6040516101ea919061280f565b60405180910390f35b6101fb6107e4565b6040516102089190612877565b60405180910390f35b61022b600480360381019061022691906126f7565b610873565b60405161023891906128d6565b60405180910390f35b61025b60048036038101906102569190612919565b61088e565b005b6102656108a4565b60405161027291906125f0565b60405180910390f35b61029560048036038101906102909190612957565b6108b0565b005b6102b160048036038101906102ac9190612919565b6109af565b6040516102be91906125f0565b60405180910390f35b6102e160048036038101906102dc91906126f7565b610a53565b6040516102ee9190612877565b60405180910390f35b610311600480360381019061030c9190612957565b610ae1565b005b61032d600480360381019061032891906126f7565b610b00565b005b61034960048036038101906103449190612ad3565b610bc9565b005b610365600480360381019061036091906126f7565b610c7e565b60405161037291906125f0565b60405180910390f35b610395600480360381019061039091906126f7565b610cf0565b6040516103a291906128d6565b60405180910390f35b6103c560048036038101906103c09190612b8b565b610d01565b6040516103d291906125f0565b60405180910390f35b6103e3610db7565b005b6103ed610dca565b6040516103fa91906128d6565b60405180910390f35b61040b610df2565b6040516104189190612877565b60405180910390f35b61043b60048036038101906104369190612be0565b610e82565b005b61045760048036038101906104529190612cbc565b610e98565b005b610473600480360381019061046e91906126f7565b610ebd565b6040516104809190612877565b60405180910390f35b6104a3600480360381019061049e9190612d3c565b610f23565b6040516104b091906126b4565b60405180910390f35b6104d360048036038101906104ce91906126f7565b610fb1565b6040516104e39493929190612d7a565b60405180910390f35b61050660048036038101906105019190612b8b565b61116f565b005b5f600c54905090565b5f7f780e9d63000000000000000000000000000000000000000000000000000000007bffffffffffffffffffffffffffffffffffffffffffffffffffffffff1916827bffffffffffffffffffffffffffffffffffffffffffffffffffffffff191614806105835750610582826111f3565b5b9050919050565b610592612559565b5f73ffffffffffffffffffffffffffffffffffffffff166105b2836112d4565b73ffffffffffffffffffffffffffffffffffffffff1603610608576040517f08c379a00000000000000000000000000000000000000000000000000000000081526004016105ff90612e1c565b60405180910390fd5b600b5f8381526020019081526020015f206040518060800160405290815f8201805461063390612e67565b80601f016020809104026020016040519081016040528092919081815260200182805461065f90612e67565b80156106aa5780601f10610681576101008083540402835291602001916106aa565b820191905f5260205f20905b81548152906001019060200180831161068d57829003601f168201915b505050505081526020016001820180546106c390612e67565b80601f01602080910402602001604051908101604052809291908181526020018280546106ef90612e67565b801561073a5780601f106107115761010080835404028352916020019161073a565b820191905f5260205f20905b81548152906001019060200180831161071d57829003601f168201915b5050505050815260200160028201805461075390612e67565b80601f016020809104026020016040519081016040528092919081815260200182805461077f90612e67565b80156107ca5780601f106107a1576101008083540402835291602001916107ca565b820191905f5260205f20905b8154815290600101906020018083116107ad57829003601f168201915b505050505081526020016003820154815250509050919050565b60605f80546107f290612e67565b80601f016020809104026020016040519081016040528092919081815260200182805461081e90612e67565b80156108695780601f1061084057610100808354040283529160200191610869565b820191905f5260205f20905b81548152906001019060200180831161084c57829003601f168201915b5050505050905090565b5f61087d8261130d565b5061088782611393565b9050919050565b6108a0828261089b6113cc565b6113d3565b5050565b5f600880549050905090565b5f73ffffffffffffffffffffffffffffffffffffffff168273ffffffffffffffffffffffffffffffffffffffff1603610920575f6040517f64a0ae9200000000000000000000000000000000000000000000000000000000815260040161091791906128d6565b60405180910390fd5b5f610933838361092e6113cc565b6113e5565b90508373ffffffffffffffffffffffffffffffffffffffff168173ffffffffffffffffffffffffffffffffffffffff16146109a9578382826040517f64283d7b0000000000000000000000000000000000000000000000000000000081526004016109a093929190612e97565b60405180910390fd5b50505050565b5f6109b983610d01565b82106109fe5782826040517fa57d13dc0000000000000000000000000000000000000000000000000000000081526004016109f5929190612ecc565b60405180910390fd5b60065f8473ffffffffffffffffffffffffffffffffffffffff1673ffffffffffffffffffffffffffffffffffffffff1681526020019081526020015f205f8381526020019081526020015f2054905092915050565b60605f73ffffffffffffffffffffffffffffffffffffffff16610a75836112d4565b73ffffffffffffffffffffffffffffffffffffffff1603610acb576040517f08c379a0000000000000000000000000000000000000000000000000000000008152600401610ac290612f3d565b60405180910390fd5b60405180602001604052805f8152509050919050565b610afb83838360405180602001604052805f815250610e98565b505050565b3373ffffffffffffffffffffffffffffffffffffffff16610b20826112d4565b73ffffffffffffffffffffffffffffffffffffffff1614610b76576040517f08c379a0000000000000000000000000000000000000000000000000000000008152600401610b6d90612fa5565b60405180910390fd5b610b7f816114ff565b600b5f8281526020019081526020015f205f8082015f610b9f9190612580565b600182015f610bae9190612580565b600282015f610bbd9190612580565b600382015f9055505050565b610bd1611581565b5f600c549050610be18582611608565b604051806080016040528085815260200184815260200183815260200142815250600b5f8381526020019081526020015f205f820151815f019081610c269190613160565b506020820151816001019081610c3c9190613160565b506040820151816002019081610c529190613160565b5060608201518160030155905050600c5f815480929190610c729061325c565b91905055505050505050565b5f610c876108a4565b8210610ccc575f826040517fa57d13dc000000000000000000000000000000000000000000000000000000008152600401610cc3929190612ecc565b60405180910390fd5b60088281548110610ce057610cdf6132a3565b5b905f5260205f2001549050919050565b5f610cfa8261130d565b9050919050565b5f8073ffffffffffffffffffffffffffffffffffffffff168273ffffffffffffffffffffffffffffffffffffffff1603610d72575f6040517f89c62b64000000000000000000000000000000000000000000000000000000008152600401610d6991906128d6565b60405180910390fd5b60035f8373ffffffffffffffffffffffffffffffffffffffff1673ffffffffffffffffffffffffffffffffffffffff1681526020019081526020015f20549050919050565b610dbf611581565b610dc85f611625565b565b5f600a5f9054906101000a900473ffffffffffffffffffffffffffffffffffffffff16905090565b606060018054610e0190612e67565b80601f0160208091040260200160405190810160405280929190818152602001828054610e2d90612e67565b8015610e785780601f10610e4f57610100808354040283529160200191610e78565b820191905f5260205f20905b815481529060010190602001808311610e5b57829003601f168201915b5050505050905090565b610e94610e8d6113cc565b83836116e8565b5050565b610ea38484846108b0565b610eb7610eae6113cc565b85858585611851565b50505050565b6060610ec88261130d565b505f610ed26119fd565b90505f815111610ef05760405180602001604052805f815250610f1b565b80610efa84611a13565b604051602001610f0b92919061330a565b6040516020818303038152906040525b915050919050565b5f60055f8473ffffffffffffffffffffffffffffffffffffffff1673ffffffffffffffffffffffffffffffffffffffff1681526020019081526020015f205f8373ffffffffffffffffffffffffffffffffffffffff1673ffffffffffffffffffffffffffffffffffffffff1681526020019081526020015f205f9054906101000a900460ff16905092915050565b600b602052805f5260405f205f91509050805f018054610fd090612e67565b80601f0160208091040260200160405190810160405280929190818152602001828054610ffc90612e67565b80156110475780601f1061101e57610100808354040283529160200191611047565b820191905f5260205f20905b81548152906001019060200180831161102a57829003601f168201915b50505050509080600101805461105c90612e67565b80601f016020809104026020016040519081016040528092919081815260200182805461108890612e67565b80156110d35780601f106110aa576101008083540402835291602001916110d3565b820191905f5260205f20905b8154815290600101906020018083116110b657829003601f168201915b5050505050908060020180546110e890612e67565b80601f016020809104026020016040519081016040528092919081815260200182805461111490612e67565b801561115f5780601f106111365761010080835404028352916020019161115f565b820191905f5260205f20905b81548152906001019060200180831161114257829003601f168201915b5050505050908060030154905084565b611177611581565b5f73ffffffffffffffffffffffffffffffffffffffff168173ffffffffffffffffffffffffffffffffffffffff16036111e7575f6040517f1e4fbdf70000000000000000000000000000000000000000000000000000000081526004016111de91906128d6565b60405180910390fd5b6111f081611625565b50565b5f7f80ac58cd000000000000000000000000000000000000000000000000000000007bffffffffffffffffffffffffffffffffffffffffffffffffffffffff1916827bffffffffffffffffffffffffffffffffffffffffffffffffffffffff191614806112bd57507f5b5e139f000000000000000000000000000000000000000000000000000000007bffffffffffffffffffffffffffffffffffffffffffffffffffffffff1916827bffffffffffffffffffffffffffffffffffffffffffffffffffffffff1916145b806112cd57506112cc82611add565b5b9050919050565b5f60025f8381526020019081526020015f205f9054906101000a900473ffffffffffffffffffffffffffffffffffffffff169050919050565b5f80611318836112d4565b90505f73ffffffffffffffffffffffffffffffffffffffff168173ffffffffffffffffffffffffffffffffffffffff160361138a57826040517f7e27328900000000000000000000000000000000000000000000000000000000815260040161138191906125f0565b60405180910390fd5b80915050919050565b5f60045f8381526020019081526020015f205f9054906101000a900473ffffffffffffffffffffffffffffffffffffffff169050919050565b5f33905090565b6113e08383836001611b46565b505050565b5f806113f2858585611d05565b90505f73ffffffffffffffffffffffffffffffffffffffff168173ffffffffffffffffffffffffffffffffffffffff16036114355761143084611f10565b611474565b8473ffffffffffffffffffffffffffffffffffffffff168173ffffffffffffffffffffffffffffffffffffffff1614611473576114728185611f54565b5b5b5f73ffffffffffffffffffffffffffffffffffffffff168573ffffffffffffffffffffffffffffffffffffffff16036114b5576114b08461202b565b6114f4565b8473ffffffffffffffffffffffffffffffffffffffff168173ffffffffffffffffffffffffffffffffffffffff16146114f3576114f285856120eb565b5b5b809150509392505050565b5f61150b5f835f6113e5565b90505f73ffffffffffffffffffffffffffffffffffffffff168173ffffffffffffffffffffffffffffffffffffffff160361157d57816040517f7e27328900000000000000000000000000000000000000000000000000000000815260040161157491906125f0565b60405180910390fd5b5050565b6115896113cc565b73ffffffffffffffffffffffffffffffffffffffff166115a7610dca565b73ffffffffffffffffffffffffffffffffffffffff1614611606576115ca6113cc565b6040517f118cdaa70000000000000000000000000000000000000000000000000000000081526004016115fd91906128d6565b60405180910390fd5b565b611621828260405180602001604052805f81525061216f565b5050565b5f600a5f9054906101000a900473ffffffffffffffffffffffffffffffffffffffff16905081600a5f6101000a81548173ffffffffffffffffffffffffffffffffffffffff021916908373ffffffffffffffffffffffffffffffffffffffff1602179055508173ffffffffffffffffffffffffffffffffffffffff168173ffffffffffffffffffffffffffffffffffffffff167f8be0079c531659141344cd1fd0a4f28419497f9722a3daafe3b4186f6b6457e060405160405180910390a35050565b5f73ffffffffffffffffffffffffffffffffffffffff168273ffffffffffffffffffffffffffffffffffffffff160361175857816040517f5b08ba1800000000000000000000000000000000000000000000000000000000815260040161174f91906128d6565b60405180910390fd5b8060055f8573ffffffffffffffffffffffffffffffffffffffff1673ffffffffffffffffffffffffffffffffffffffff1681526020019081526020015f205f8473ffffffffffffffffffffffffffffffffffffffff1673ffffffffffffffffffffffffffffffffffffffff1681526020019081526020015f205f6101000a81548160ff0219169083151502179055508173ffffffffffffffffffffffffffffffffffffffff168373ffffffffffffffffffffffffffffffffffffffff167f17307eab39ab6107e8899845ad3d59bd9653f200f220920489ca2b5937696c318360405161184491906126b4565b60405180910390a3505050565b5f8373ffffffffffffffffffffffffffffffffffffffff163b11156119f6578273ffffffffffffffffffffffffffffffffffffffff1663150b7a02868685856040518563ffffffff1660e01b81526004016118af949392919061337f565b6020604051808303815f875af19250505080156118ea57506040513d601f19601f820116820180604052508101906118e791906133dd565b60015b61196b573d805f8114611918576040519150601f19603f3d011682016040523d82523d5f602084013e61191d565b606091505b505f81510361196357836040517f64a0ae9200000000000000000000000000000000000000000000000000000000815260040161195a91906128d6565b60405180910390fd5b805181602001fd5b63150b7a0260e01b7bffffffffffffffffffffffffffffffffffffffffffffffffffffffff1916817bffffffffffffffffffffffffffffffffffffffffffffffffffffffff1916146119f457836040517f64a0ae920000000000000000000000000000000000000000000000000000000081526004016119eb91906128d6565b60405180910390fd5b505b5050505050565b606060405180602001604052805f815250905090565b60605f6001611a2184612192565b0190505f8167ffffffffffffffff811115611a3f57611a3e6129af565b5b6040519080825280601f01601f191660200182016040528015611a715781602001600182028036833780820191505090505b5090505f82602001820190505b600115611ad2578080600190039150507f3031323334353637383961626364656600000000000000000000000000000000600a86061a8153600a8581611ac757611ac6613408565b5b0494505f8503611a7e575b819350505050919050565b5f7f01ffc9a7000000000000000000000000000000000000000000000000000000007bffffffffffffffffffffffffffffffffffffffffffffffffffffffff1916827bffffffffffffffffffffffffffffffffffffffffffffffffffffffff1916149050919050565b8080611b7e57505f73ffffffffffffffffffffffffffffffffffffffff168273ffffffffffffffffffffffffffffffffffffffff1614155b15611cb0575f611b8d8461130d565b90505f73ffffffffffffffffffffffffffffffffffffffff168373ffffffffffffffffffffffffffffffffffffffff1614158015611bf757508273ffffffffffffffffffffffffffffffffffffffff168173ffffffffffffffffffffffffffffffffffffffff1614155b8015611c0a5750611c088184610f23565b155b15611c4c57826040517fa9fbf51f000000000000000000000000000000000000000000000000000000008152600401611c4391906128d6565b60405180910390fd5b8115611cae57838573ffffffffffffffffffffffffffffffffffffffff168273ffffffffffffffffffffffffffffffffffffffff167f8c5be1e5ebec7d5bd14f71427d1e84f3dd0314c0f7b2291e5b200ac8c7c3b92560405160405180910390a45b505b8360045f8581526020019081526020015f205f6101000a81548173ffffffffffffffffffffffffffffffffffffffff021916908373ffffffffffffffffffffffffffffffffffffffff16021790555050505050565b5f80611d10846112d4565b90505f73ffffffffffffffffffffffffffffffffffffffff168373ffffffffffffffffffffffffffffffffffffffff1614611d5157611d508184866122e3565b5b5f73ffffffffffffffffffffffffffffffffffffffff168173ffffffffffffffffffffffffffffffffffffffff1614611ddc57611d905f855f80611b46565b600160035f8373ffffffffffffffffffffffffffffffffffffffff1673ffffffffffffffffffffffffffffffffffffffff1681526020019081526020015f205f82825403925050819055505b5f73ffffffffffffffffffffffffffffffffffffffff168573ffffffffffffffffffffffffffffffffffffffff1614611e5b57600160035f8773ffffffffffffffffffffffffffffffffffffffff1673ffffffffffffffffffffffffffffffffffffffff1681526020019081526020015f205f82825401925050819055505b8460025f8681526020019081526020015f205f6101000a81548173ffffffffffffffffffffffffffffffffffffffff021916908373ffffffffffffffffffffffffffffffffffffffff160217905550838573ffffffffffffffffffffffffffffffffffffffff168273ffffffffffffffffffffffffffffffffffffffff167fddf252ad1be2c89b69c2b068fc378daa952ba7f163c4a11628f55a4df523b3ef60405160405180910390a4809150509392505050565b60088054905060095f8381526020019081526020015f2081905550600881908060018154018082558091505060019003905f5260205f20015f909190919091505550565b5f611f5e83610d01565b90505f60075f8481526020019081526020015f205490505f60065f8673ffffffffffffffffffffffffffffffffffffffff1673ffffffffffffffffffffffffffffffffffffffff1681526020019081526020015f209050828214611ffd575f815f8581526020019081526020015f2054905080825f8581526020019081526020015f20819055508260075f8381526020019081526020015f2081905550505b60075f8581526020019081526020015f205f9055805f8481526020019081526020015f205f90555050505050565b5f600160088054905061203e9190613435565b90505f60095f8481526020019081526020015f205490505f6008838154811061206a576120696132a3565b5b905f5260205f2001549050806008838154811061208a576120896132a3565b5b905f5260205f2001819055508160095f8381526020019081526020015f208190555060095f8581526020019081526020015f205f905560088054806120d2576120d1613468565b5b600190038181905f5260205f20015f9055905550505050565b5f60016120f784610d01565b6121019190613435565b90508160065f8573ffffffffffffffffffffffffffffffffffffffff1673ffffffffffffffffffffffffffffffffffffffff1681526020019081526020015f205f8381526020019081526020015f20819055508060075f8481526020019081526020015f2081905550505050565b61217983836123a6565b61218d6121846113cc565b5f858585611851565b505050565b5f805f90507a184f03e93ff9f4daa797ed6e38ed64bf6a1f01000000000000000083106121ee577a184f03e93ff9f4daa797ed6e38ed64bf6a1f01000000000000000083816121e4576121e3613408565b5b0492506040810190505b6d04ee2d6d415b85acef8100000000831061222b576d04ee2d6d415b85acef8100000000838161222157612220613408565b5b0492506020810190505b662386f26fc10000831061225a57662386f26fc1000083816122505761224f613408565b5b0492506010810190505b6305f5e1008310612283576305f5e100838161227957612278613408565b5b0492506008810190505b61271083106122a857612710838161229e5761229d613408565b5b0492506004810190505b606483106122cb57606483816122c1576122c0613408565b5b0492506002810190505b600a83106122da576001810190505b80915050919050565b6122ee838383612499565b6123a1575f73ffffffffffffffffffffffffffffffffffffffff168373ffffffffffffffffffffffffffffffffffffffff160361236257806040517f7e27328900000000000000000000000000000000000000000000000000000000815260040161235991906125f0565b60405180910390fd5b81816040517f177e802f000000000000000000000000000000000000000000000000000000008152600401612398929190612ecc565b60405180910390fd5b505050565b5f73ffffffffffffffffffffffffffffffffffffffff168273ffffffffffffffffffffffffffffffffffffffff1603612416575f6040517f64a0ae9200000000000000000000000000000000000000000000000000000000815260040161240d91906128d6565b60405180910390fd5b5f61242283835f6113e5565b90505f73ffffffffffffffffffffffffffffffffffffffff168173ffffffffffffffffffffffffffffffffffffffff1614612494575f6040517f73c6ac6e00000000000000000000000000000000000000000000000000000000815260040161248b91906128d6565b60405180910390fd5b505050565b5f8073ffffffffffffffffffffffffffffffffffffffff168373ffffffffffffffffffffffffffffffffffffffff161415801561255057508273ffffffffffffffffffffffffffffffffffffffff168473ffffffffffffffffffffffffffffffffffffffff16148061251157506125108484610f23565b5b8061254f57508273ffffffffffffffffffffffffffffffffffffffff1661253783611393565b73ffffffffffffffffffffffffffffffffffffffff16145b5b90509392505050565b60405180608001604052806060815260200160608152602001606081526020015f81525090565b50805461258c90612e67565b5f825580601f1061259d57506125ba565b601f0160209004905f5260205f20908101906125b991906125bd565b5b50565b5b808211156125d4575f815f9055506001016125be565b5090565b5f819050919050565b6125ea816125d8565b82525050565b5f6020820190506126035f8301846125e1565b92915050565b5f604051905090565b5f80fd5b5f80fd5b5f7fffffffff0000000000000000000000000000000000000000000000000000000082169050919050565b61264e8161261a565b8114612658575f80fd5b50565b5f8135905061266981612645565b92915050565b5f6020828403121561268457612683612612565b5b5f6126918482850161265b565b91505092915050565b5f8115159050919050565b6126ae8161269a565b82525050565b5f6020820190506126c75f8301846126a5565b92915050565b6126d6816125d8565b81146126e0575f80fd5b50565b5f813590506126f1816126cd565b92915050565b5f6020828403121561270c5761270b612612565b5b5f612719848285016126e3565b91505092915050565b5f81519050919050565b5f82825260208201905092915050565b8281835e5f83830152505050565b5f601f19601f8301169050919050565b5f61276482612722565b61276e818561272c565b935061277e81856020860161273c565b6127878161274a565b840191505092915050565b61279b816125d8565b82525050565b5f608083015f8301518482035f8601526127bb828261275a565b915050602083015184820360208601526127d5828261275a565b915050604083015184820360408601526127ef828261275a565b91505060608301516128046060860182612792565b508091505092915050565b5f6020820190508181035f83015261282781846127a1565b905092915050565b5f82825260208201905092915050565b5f61284982612722565b612853818561282f565b935061286381856020860161273c565b61286c8161274a565b840191505092915050565b5f6020820190508181035f83015261288f818461283f565b905092915050565b5f73ffffffffffffffffffffffffffffffffffffffff82169050919050565b5f6128c082612897565b9050919050565b6128d0816128b6565b82525050565b5f6020820190506128e95f8301846128c7565b92915050565b6128f8816128b6565b8114612902575f80fd5b50565b5f81359050612913816128ef565b92915050565b5f806040838503121561292f5761292e612612565b5b5f61293c85828601612905565b925050602061294d858286016126e3565b9150509250929050565b5f805f6060848603121561296e5761296d612612565b5b5f61297b86828701612905565b935050602061298c86828701612905565b925050604061299d868287016126e3565b9150509250925092565b5f80fd5b5f80fd5b7f4e487b71000000000000000000000000000000000000000000000000000000005f52604160045260245ffd5b6129e58261274a565b810181811067ffffffffffffffff82111715612a0457612a036129af565b5b80604052505050565b5f612a16612609565b9050612a2282826129dc565b919050565b5f67ffffffffffffffff821115612a4157612a406129af565b5b612a4a8261274a565b9050602081019050919050565b828183375f83830152505050565b5f612a77612a7284612a27565b612a0d565b905082815260208101848484011115612a9357612a926129ab565b5b612a9e848285612a57565b509392505050565b5f82601f830112612aba57612ab96129a7565b5b8135612aca848260208601612a65565b91505092915050565b5f805f8060808587031215612aeb57612aea612612565b5b5f612af887828801612905565b945050602085013567ffffffffffffffff811115612b1957612b18612616565b5b612b2587828801612aa6565b935050604085013567ffffffffffffffff811115612b4657612b45612616565b5b612b5287828801612aa6565b925050606085013567ffffffffffffffff811115612b7357612b72612616565b5b612b7f87828801612aa6565b91505092959194509250565b5f60208284031215612ba057612b9f612612565b5b5f612bad84828501612905565b91505092915050565b612bbf8161269a565b8114612bc9575f80fd5b50565b5f81359050612bda81612bb6565b92915050565b5f8060408385031215612bf657612bf5612612565b5b5f612c0385828601612905565b9250506020612c1485828601612bcc565b9150509250929050565b5f67ffffffffffffffff821115612c3857612c376129af565b5b612c418261274a565b9050602081019050919050565b5f612c60612c5b84612c1e565b612a0d565b905082815260208101848484011115612c7c57612c7b6129ab565b5b612c87848285612a57565b509392505050565b5f82601f830112612ca357612ca26129a7565b5b8135612cb3848260208601612c4e565b91505092915050565b5f805f8060808587031215612cd457612cd3612612565b5b5f612ce187828801612905565b9450506020612cf287828801612905565b9350506040612d03878288016126e3565b925050606085013567ffffffffffffffff811115612d2457612d23612616565b5b612d3087828801612c8f565b91505092959194509250565b5f8060408385031215612d5257612d51612612565b5b5f612d5f85828601612905565b9250506020612d7085828601612905565b9150509250929050565b5f6080820190508181035f830152612d92818761283f565b90508181036020830152612da6818661283f565b90508181036040830152612dba818561283f565b9050612dc960608301846125e1565b95945050505050565b7f546f6b656e20646f6573206e6f742065786973740000000000000000000000005f82015250565b5f612e0660148361282f565b9150612e1182612dd2565b602082019050919050565b5f6020820190508181035f830152612e3381612dfa565b9050919050565b7f4e487b71000000000000000000000000000000000000000000000000000000005f52602260045260245ffd5b5f6002820490506001821680612e7e57607f821691505b602082108103612e9157612e90612e3a565b5b50919050565b5f606082019050612eaa5f8301866128c7565b612eb760208301856125e1565b612ec460408301846128c7565b949350505050565b5f604082019050612edf5f8301856128c7565b612eec60208301846125e1565b9392505050565b7f517565727920666f72206e6f6e6578697374656e7420746f6b656e00000000005f82015250565b5f612f27601b8361282f565b9150612f3282612ef3565b602082019050919050565b5f6020820190508181035f830152612f5481612f1b565b9050919050565b7f4e6f7420746865206f776e6572000000000000000000000000000000000000005f82015250565b5f612f8f600d8361282f565b9150612f9a82612f5b565b602082019050919050565b5f6020820190508181035f830152612fbc81612f83565b9050919050565b5f819050815f5260205f209050919050565b5f6020601f8301049050919050565b5f82821b905092915050565b5f6008830261301f7fffffffffffffffffffffffffffffffffffffffffffffffffffffffffffffffff82612fe4565b6130298683612fe4565b95508019841693508086168417925050509392505050565b5f819050919050565b5f61306461305f61305a846125d8565b613041565b6125d8565b9050919050565b5f819050919050565b61307d8361304a565b6130916130898261306b565b848454612ff0565b825550505050565b5f90565b6130a5613099565b6130b0818484613074565b505050565b5b818110156130d3576130c85f8261309d565b6001810190506130b6565b5050565b601f821115613118576130e981612fc3565b6130f284612fd5565b81016020851015613101578190505b61311561310d85612fd5565b8301826130b5565b50505b505050565b5f82821c905092915050565b5f6131385f198460080261311d565b1980831691505092915050565b5f6131508383613129565b9150826002028217905092915050565b61316982612722565b67ffffffffffffffff811115613182576131816129af565b5b61318c8254612e67565b6131978282856130d7565b5f60209050601f8311600181146131c8575f84156131b6578287015190505b6131c08582613145565b865550613227565b601f1984166131d686612fc3565b5f5b828110156131fd578489015182556001820191506020850194506020810190506131d8565b8683101561321a5784890151613216601f891682613129565b8355505b6001600288020188555050505b505050505050565b7f4e487b71000000000000000000000000000000000000000000000000000000005f52601160045260245ffd5b5f613266826125d8565b91507fffffffffffffffffffffffffffffffffffffffffffffffffffffffffffffffff82036132985761329761322f565b5b600182019050919050565b7f4e487b71000000000000000000000000000000000000000000000000000000005f52603260045260245ffd5b5f81905092915050565b5f6132e482612722565b6132ee81856132d0565b93506132fe81856020860161273c565b80840191505092915050565b5f61331582856132da565b915061332182846132da565b91508190509392505050565b5f81519050919050565b5f82825260208201905092915050565b5f6133518261332d565b61335b8185613337565b935061336b81856020860161273c565b6133748161274a565b840191505092915050565b5f6080820190506133925f8301876128c7565b61339f60208301866128c7565b6133ac60408301856125e1565b81810360608301526133be8184613347565b905095945050505050565b5f815190506133d781612645565b92915050565b5f602082840312156133f2576133f1612612565b5b5f6133ff848285016133c9565b91505092915050565b7f4e487b71000000000000000000000000000000000000000000000000000000005f52601260045260245ffd5b5f61343f826125d8565b915061344a836125d8565b92508282039050818111156134625761346161322f565b5b92915050565b7f4e487b71000000000000000000000000000000000000000000000000000000005f52603160045260245ffdfea2646970667358221220827c47e0a06b93e713cf82dacb9a64964f0cb592f979eae263ba56cf4573f5e664736f6c634300081a0033","linkReferences":{}},"methodIdentifiers":{"approve(address,uint256)":"095ea7b3","balanceOf(address)":"70a08231","burn(uint256)":"42966c68","getApproved(uint256)":"081812fc","getRecord(uint256)":"03e9e609","getTokenId()":"010a38f5","getTokenURI(uint256)":"3bb3a24d","growthRecords(uint256)":"edacf6b4","isApprovedForAll(address,address)":"e985e9c5","mint(address,string,string,string)":"4a0706be","name()":"06fdde03","owner()":"8da5cb5b","ownerOf(uint256)":"6352211e","renounceOwnership()":"715018a6","safeTransferFrom(address,address,uint256)":"42842e0e","safeTransferFrom(address,address,uint256,bytes)":"b88d4fde","setApprovalForAll(address,bool)":"a22cb465","supportsInterface(bytes4)":"01ffc9a7","symbol()":"95d89b41","tokenByIndex(uint256)":"4f6ccce7","tokenOfOwnerByIndex(address,uint256)":"2f745c59","tokenURI(uint256)":"c87b56dd","totalSupply()":"18160ddd","transferFrom(address,address,uint256)":"23b872dd","transferOwnership(address)":"f2fde38b"},"id":0}